{
  "_format": "hh-sol-artifact-1",
  "contractName": "Burnable",
  "sourceName": "contracts/MemorialNFT.sol",
  "abi": [
    {
      "inputs": [],
      "stateMutability": "nonpayable",
      "type": "constructor"
    },
    {
      "anonymous": false,
      "inputs": [
        {
          "indexed": true,
          "internalType": "address",
          "name": "owner",
          "type": "address"
        },
        {
          "indexed": true,
          "internalType": "address",
          "name": "approved",
          "type": "address"
        },
        {
          "indexed": true,
          "internalType": "uint256",
          "name": "tokenId",
          "type": "uint256"
        }
      ],
      "name": "Approval",
      "type": "event"
    },
    {
      "anonymous": false,
      "inputs": [
        {
          "indexed": true,
          "internalType": "address",
          "name": "owner",
          "type": "address"
        },
        {
          "indexed": true,
          "internalType": "address",
          "name": "operator",
          "type": "address"
        },
        {
          "indexed": false,
          "internalType": "bool",
          "name": "approved",
          "type": "bool"
        }
      ],
      "name": "ApprovalForAll",
      "type": "event"
    },
    {
      "anonymous": false,
      "inputs": [
        {
          "indexed": true,
          "internalType": "address",
          "name": "from",
          "type": "address"
        },
        {
          "indexed": true,
          "internalType": "address",
          "name": "to",
          "type": "address"
        },
        {
          "indexed": true,
          "internalType": "uint256",
          "name": "tokenId",
          "type": "uint256"
        }
      ],
      "name": "Transfer",
      "type": "event"
    },
    {
      "inputs": [
        {
          "internalType": "address",
          "name": "to",
          "type": "address"
        },
        {
          "internalType": "uint256",
          "name": "tokenId",
          "type": "uint256"
        }
      ],
      "name": "approve",
      "outputs": [],
      "stateMutability": "nonpayable",
      "type": "function"
    },
    {
      "inputs": [
        {
          "internalType": "address",
          "name": "owner",
          "type": "address"
        }
      ],
      "name": "balanceOf",
      "outputs": [
        {
          "internalType": "uint256",
          "name": "",
          "type": "uint256"
        }
      ],
      "stateMutability": "view",
      "type": "function"
    },
    {
      "inputs": [
        {
          "internalType": "uint256",
          "name": "_tokenId",
          "type": "uint256"
        }
      ],
      "name": "burn",
      "outputs": [],
      "stateMutability": "nonpayable",
      "type": "function"
    },
    {
      "inputs": [
        {
          "internalType": "uint256",
          "name": "tokenId",
          "type": "uint256"
        }
      ],
      "name": "getApproved",
      "outputs": [
        {
          "internalType": "address",
          "name": "",
          "type": "address"
        }
      ],
      "stateMutability": "view",
      "type": "function"
    },
    {
      "inputs": [],
      "name": "getTokenIdBySender",
      "outputs": [
        {
          "internalType": "uint256[]",
          "name": "",
          "type": "uint256[]"
        }
      ],
      "stateMutability": "view",
      "type": "function"
    },
    {
      "inputs": [
        {
          "internalType": "address",
          "name": "owner",
          "type": "address"
        },
        {
          "internalType": "address",
          "name": "operator",
          "type": "address"
        }
      ],
      "name": "isApprovedForAll",
      "outputs": [
        {
          "internalType": "bool",
          "name": "",
          "type": "bool"
        }
      ],
      "stateMutability": "view",
      "type": "function"
    },
    {
      "inputs": [
        {
          "internalType": "string",
          "name": "tokenURI",
          "type": "string"
        }
      ],
      "name": "mintBurnable",
      "outputs": [
        {
          "internalType": "uint256",
          "name": "",
          "type": "uint256"
        }
      ],
      "stateMutability": "payable",
      "type": "function"
    },
    {
      "inputs": [],
      "name": "name",
      "outputs": [
        {
          "internalType": "string",
          "name": "",
          "type": "string"
        }
      ],
      "stateMutability": "view",
      "type": "function"
    },
    {
      "inputs": [
        {
          "internalType": "address",
          "name": "",
          "type": "address"
        }
      ],
      "name": "ownerNFTCount",
      "outputs": [
        {
          "internalType": "uint256",
          "name": "",
          "type": "uint256"
        }
      ],
      "stateMutability": "view",
      "type": "function"
    },
    {
      "inputs": [
        {
          "internalType": "uint256",
          "name": "tokenId",
          "type": "uint256"
        }
      ],
      "name": "ownerOf",
      "outputs": [
        {
          "internalType": "address",
          "name": "",
          "type": "address"
        }
      ],
      "stateMutability": "view",
      "type": "function"
    },
    {
      "inputs": [
        {
          "internalType": "address",
          "name": "from",
          "type": "address"
        },
        {
          "internalType": "address",
          "name": "to",
          "type": "address"
        },
        {
          "internalType": "uint256",
          "name": "tokenId",
          "type": "uint256"
        }
      ],
      "name": "safeTransferFrom",
      "outputs": [],
      "stateMutability": "nonpayable",
      "type": "function"
    },
    {
      "inputs": [
        {
          "internalType": "address",
          "name": "from",
          "type": "address"
        },
        {
          "internalType": "address",
          "name": "to",
          "type": "address"
        },
        {
          "internalType": "uint256",
          "name": "tokenId",
          "type": "uint256"
        },
        {
          "internalType": "bytes",
          "name": "_data",
          "type": "bytes"
        }
      ],
      "name": "safeTransferFrom",
      "outputs": [],
      "stateMutability": "nonpayable",
      "type": "function"
    },
    {
      "inputs": [
        {
          "internalType": "address",
          "name": "operator",
          "type": "address"
        },
        {
          "internalType": "bool",
          "name": "approved",
          "type": "bool"
        }
      ],
      "name": "setApprovalForAll",
      "outputs": [],
      "stateMutability": "nonpayable",
      "type": "function"
    },
    {
      "inputs": [
        {
          "internalType": "bytes4",
          "name": "interfaceId",
          "type": "bytes4"
        }
      ],
      "name": "supportsInterface",
      "outputs": [
        {
          "internalType": "bool",
          "name": "",
          "type": "bool"
        }
      ],
      "stateMutability": "view",
      "type": "function"
    },
    {
      "inputs": [],
      "name": "symbol",
      "outputs": [
        {
          "internalType": "string",
          "name": "",
          "type": "string"
        }
      ],
      "stateMutability": "view",
      "type": "function"
    },
    {
      "inputs": [
        {
          "internalType": "uint256",
          "name": "tokenId",
          "type": "uint256"
        }
      ],
      "name": "tokenURI",
      "outputs": [
        {
          "internalType": "string",
          "name": "",
          "type": "string"
        }
      ],
      "stateMutability": "view",
      "type": "function"
    },
    {
      "inputs": [
        {
          "internalType": "address",
          "name": "from",
          "type": "address"
        },
        {
          "internalType": "address",
          "name": "to",
          "type": "address"
        },
        {
          "internalType": "uint256",
          "name": "tokenId",
          "type": "uint256"
        }
      ],
      "name": "transferFrom",
      "outputs": [],
      "stateMutability": "nonpayable",
      "type": "function"
    }
  ],
  "bytecode": "0x60806040526706f05b59d3b200006008553480156200001d57600080fd5b506040518060400160405280600881526020017f4275726e61626c650000000000000000000000000000000000000000000000008152506040518060400160405280600481526020017f4255524e000000000000000000000000000000000000000000000000000000008152508160009080519060200190620000a2929190620000c4565b508060019080519060200190620000bb929190620000c4565b505050620001d9565b828054620000d29062000174565b90600052602060002090601f016020900481019282620000f6576000855562000142565b82601f106200011157805160ff191683800117855562000142565b8280016001018555821562000142579182015b828111156200014157825182559160200191906001019062000124565b5b50905062000151919062000155565b5090565b5b808211156200017057600081600090555060010162000156565b5090565b600060028204905060018216806200018d57607f821691505b60208210811415620001a457620001a3620001aa565b5b50919050565b7f4e487b7100000000000000000000000000000000000000000000000000000000600052602260045260246000fd5b6130c680620001e96000396000f3fe6080604052600436106100fe5760003560e01c80636352211e11610095578063b88d4fde11610064578063b88d4fde1461034a578063c87b56dd14610373578063ce8e0f22146103b0578063e985e9c5146103db578063fb88df1814610418576100fe565b80636352211e1461027c57806370a08231146102b957806395d89b41146102f6578063a22cb46514610321576100fe565b806323b872dd116100d157806323b872dd146101d157806342842e0e146101fa57806342966c68146102235780635775c4961461024c576100fe565b806301ffc9a71461010357806306fdde0314610140578063081812fc1461016b578063095ea7b3146101a8575b600080fd5b34801561010f57600080fd5b5061012a60048036038101906101259190612028565b610455565b6040516101379190612516565b60405180910390f35b34801561014c57600080fd5b50610155610537565b6040516101629190612531565b60405180910390f35b34801561017757600080fd5b50610192600480360381019061018d91906120bb565b6105c9565b60405161019f919061248d565b60405180910390f35b3480156101b457600080fd5b506101cf60048036038101906101ca9190611fec565b61064e565b005b3480156101dd57600080fd5b506101f860048036038101906101f39190611ee6565b610766565b005b34801561020657600080fd5b50610221600480360381019061021c9190611ee6565b6107c6565b005b34801561022f57600080fd5b5061024a600480360381019061024591906120bb565b6107e6565b005b6102666004803603810190610261919061207a565b6108da565b6040516102739190612753565b60405180910390f35b34801561028857600080fd5b506102a3600480360381019061029e91906120bb565b610974565b6040516102b0919061248d565b60405180910390f35b3480156102c557600080fd5b506102e060048036038101906102db9190611e81565b610a26565b6040516102ed9190612753565b60405180910390f35b34801561030257600080fd5b5061030b610ade565b6040516103189190612531565b60405180910390f35b34801561032d57600080fd5b5061034860048036038101906103439190611fb0565b610b70565b005b34801561035657600080fd5b50610371600480360381019061036c9190611f35565b610b86565b005b34801561037f57600080fd5b5061039a600480360381019061039591906120bb565b610be8565b6040516103a79190612531565b60405180910390f35b3480156103bc57600080fd5b506103c5610d3a565b6040516103d291906124f4565b60405180910390f35b3480156103e757600080fd5b5061040260048036038101906103fd9190611eaa565b610eb3565b60405161040f9190612516565b60405180910390f35b34801561042457600080fd5b5061043f600480360381019061043a9190611e81565b610f47565b60405161044c9190612753565b60405180910390f35b60007f80ac58cd000000000000000000000000000000000000000000000000000000007bffffffffffffffffffffffffffffffffffffffffffffffffffffffff1916827bffffffffffffffffffffffffffffffffffffffffffffffffffffffff1916148061052057507f5b5e139f000000000000000000000000000000000000000000000000000000007bffffffffffffffffffffffffffffffffffffffffffffffffffffffff1916827bffffffffffffffffffffffffffffffffffffffffffffffffffffffff1916145b80610530575061052f82610f5f565b5b9050919050565b60606000805461054690612a0c565b80601f016020809104026020016040519081016040528092919081815260200182805461057290612a0c565b80156105bf5780601f10610594576101008083540402835291602001916105bf565b820191906000526020600020905b8154815290600101906020018083116105a257829003601f168201915b5050505050905090565b60006105d482610fc9565b610613576040517f08c379a000000000000000000000000000000000000000000000000000000000815260040161060a906126d3565b60405180910390fd5b6004600083815260200190815260200160002060009054906101000a900473ffffffffffffffffffffffffffffffffffffffff169050919050565b600061065982610974565b90508073ffffffffffffffffffffffffffffffffffffffff168373ffffffffffffffffffffffffffffffffffffffff1614156106ca576040517f08c379a00000000000000000000000000000000000000000000000000000000081526004016106c190612713565b60405180910390fd5b8073ffffffffffffffffffffffffffffffffffffffff166106e9611035565b73ffffffffffffffffffffffffffffffffffffffff161480610718575061071781610712611035565b610eb3565b5b610757576040517f08c379a000000000000000000000000000000000000000000000000000000000815260040161074e90612613565b60405180910390fd5b610761838361103d565b505050565b610777610771611035565b826110f6565b6107b6576040517f08c379a00000000000000000000000000000000000000000000000000000000081526004016107ad90612733565b60405180910390fd5b6107c18383836111d4565b505050565b6107e183838360405180602001604052806000815250610b86565b505050565b3373ffffffffffffffffffffffffffffffffffffffff1661080682610974565b73ffffffffffffffffffffffffffffffffffffffff161461082657600080fd5b6108333361dead836111d4565b60003390508073ffffffffffffffffffffffffffffffffffffffff166108fc6008549081150290604051600060405180830381858888f19350505050158015610880573d6000803e3d6000fd5b50600960003373ffffffffffffffffffffffffffffffffffffffff1673ffffffffffffffffffffffffffffffffffffffff16815260200190815260200160002060008154809291906108d1906129e2565b91905055505050565b600060085434146108ea57600080fd5b6108f4600761143b565b60006109006007611451565b905061090c338261145f565b6109168184611639565b600960003373ffffffffffffffffffffffffffffffffffffffff1673ffffffffffffffffffffffffffffffffffffffff168152602001908152602001600020600081548092919061096690612a6f565b919050555080915050919050565b6000806002600084815260200190815260200160002060009054906101000a900473ffffffffffffffffffffffffffffffffffffffff169050600073ffffffffffffffffffffffffffffffffffffffff168173ffffffffffffffffffffffffffffffffffffffff161415610a1d576040517f08c379a0000000000000000000000000000000000000000000000000000000008152600401610a1490612653565b60405180910390fd5b80915050919050565b60008073ffffffffffffffffffffffffffffffffffffffff168273ffffffffffffffffffffffffffffffffffffffff161415610a97576040517f08c379a0000000000000000000000000000000000000000000000000000000008152600401610a8e90612633565b60405180910390fd5b600360008373ffffffffffffffffffffffffffffffffffffffff1673ffffffffffffffffffffffffffffffffffffffff168152602001908152602001600020549050919050565b606060018054610aed90612a0c565b80601f0160208091040260200160405190810160405280929190818152602001828054610b1990612a0c565b8015610b665780601f10610b3b57610100808354040283529160200191610b66565b820191906000526020600020905b815481529060010190602001808311610b4957829003601f168201915b5050505050905090565b610b82610b7b611035565b83836116ad565b5050565b610b97610b91611035565b836110f6565b610bd6576040517f08c379a0000000000000000000000000000000000000000000000000000000008152600401610bcd90612733565b60405180910390fd5b610be28484848461181a565b50505050565b6060610bf382610fc9565b610c32576040517f08c379a0000000000000000000000000000000000000000000000000000000008152600401610c29906126b3565b60405180910390fd5b6000600660008481526020019081526020016000208054610c5290612a0c565b80601f0160208091040260200160405190810160405280929190818152602001828054610c7e90612a0c565b8015610ccb5780601f10610ca057610100808354040283529160200191610ccb565b820191906000526020600020905b815481529060010190602001808311610cae57829003601f168201915b505050505090506000610cdc611876565b9050600081511415610cf2578192505050610d35565b600082511115610d27578082604051602001610d0f929190612469565b60405160208183030381529060405292505050610d35565b610d308461188d565b925050505b919050565b60606000600960003373ffffffffffffffffffffffffffffffffffffffff1673ffffffffffffffffffffffffffffffffffffffff1681526020019081526020016000205467ffffffffffffffff811115610dbd577f4e487b7100000000000000000000000000000000000000000000000000000000600052604160045260246000fd5b604051908082528060200260200182016040528015610deb5781602001602082028036833780820191505090505b509050600080600190505b610e006007611451565b8111610eaa573373ffffffffffffffffffffffffffffffffffffffff16610e2682610974565b73ffffffffffffffffffffffffffffffffffffffff161415610e975780838381518110610e7c577f4e487b7100000000000000000000000000000000000000000000000000000000600052603260045260246000fd5b6020026020010181815250508180610e9390612a6f565b9250505b8080610ea290612a6f565b915050610df6565b50819250505090565b6000600560008473ffffffffffffffffffffffffffffffffffffffff1673ffffffffffffffffffffffffffffffffffffffff16815260200190815260200160002060008373ffffffffffffffffffffffffffffffffffffffff1673ffffffffffffffffffffffffffffffffffffffff16815260200190815260200160002060009054906101000a900460ff16905092915050565b60096020528060005260406000206000915090505481565b60007f01ffc9a7000000000000000000000000000000000000000000000000000000007bffffffffffffffffffffffffffffffffffffffffffffffffffffffff1916827bffffffffffffffffffffffffffffffffffffffffffffffffffffffff1916149050919050565b60008073ffffffffffffffffffffffffffffffffffffffff166002600084815260200190815260200160002060009054906101000a900473ffffffffffffffffffffffffffffffffffffffff1673ffffffffffffffffffffffffffffffffffffffff1614159050919050565b600033905090565b816004600083815260200190815260200160002060006101000a81548173ffffffffffffffffffffffffffffffffffffffff021916908373ffffffffffffffffffffffffffffffffffffffff160217905550808273ffffffffffffffffffffffffffffffffffffffff166110b083610974565b73ffffffffffffffffffffffffffffffffffffffff167f8c5be1e5ebec7d5bd14f71427d1e84f3dd0314c0f7b2291e5b200ac8c7c3b92560405160405180910390a45050565b600061110182610fc9565b611140576040517f08c379a0000000000000000000000000000000000000000000000000000000008152600401611137906125f3565b60405180910390fd5b600061114b83610974565b90508073ffffffffffffffffffffffffffffffffffffffff168473ffffffffffffffffffffffffffffffffffffffff1614806111ba57508373ffffffffffffffffffffffffffffffffffffffff166111a2846105c9565b73ffffffffffffffffffffffffffffffffffffffff16145b806111cb57506111ca8185610eb3565b5b91505092915050565b8273ffffffffffffffffffffffffffffffffffffffff166111f482610974565b73ffffffffffffffffffffffffffffffffffffffff161461124a576040517f08c379a000000000000000000000000000000000000000000000000000000000815260040161124190612573565b60405180910390fd5b600073ffffffffffffffffffffffffffffffffffffffff168273ffffffffffffffffffffffffffffffffffffffff1614156112ba576040517f08c379a00000000000000000000000000000000000000000000000000000000081526004016112b1906125b3565b60405180910390fd5b6112c5838383611934565b6112d060008261103d565b6001600360008573ffffffffffffffffffffffffffffffffffffffff1673ffffffffffffffffffffffffffffffffffffffff168152602001908152602001600020600082825461132091906128f8565b925050819055506001600360008473ffffffffffffffffffffffffffffffffffffffff1673ffffffffffffffffffffffffffffffffffffffff16815260200190815260200160002060008282546113779190612871565b92505081905550816002600083815260200190815260200160002060006101000a81548173ffffffffffffffffffffffffffffffffffffffff021916908373ffffffffffffffffffffffffffffffffffffffff160217905550808273ffffffffffffffffffffffffffffffffffffffff168473ffffffffffffffffffffffffffffffffffffffff167fddf252ad1be2c89b69c2b068fc378daa952ba7f163c4a11628f55a4df523b3ef60405160405180910390a4611436838383611939565b505050565b6001816000016000828254019250508190555050565b600081600001549050919050565b600073ffffffffffffffffffffffffffffffffffffffff168273ffffffffffffffffffffffffffffffffffffffff1614156114cf576040517f08c379a00000000000000000000000000000000000000000000000000000000081526004016114c690612693565b60405180910390fd5b6114d881610fc9565b15611518576040517f08c379a000000000000000000000000000000000000000000000000000000000815260040161150f90612593565b60405180910390fd5b61152460008383611934565b6001600360008473ffffffffffffffffffffffffffffffffffffffff1673ffffffffffffffffffffffffffffffffffffffff16815260200190815260200160002060008282546115749190612871565b92505081905550816002600083815260200190815260200160002060006101000a81548173ffffffffffffffffffffffffffffffffffffffff021916908373ffffffffffffffffffffffffffffffffffffffff160217905550808273ffffffffffffffffffffffffffffffffffffffff16600073ffffffffffffffffffffffffffffffffffffffff167fddf252ad1be2c89b69c2b068fc378daa952ba7f163c4a11628f55a4df523b3ef60405160405180910390a461163560008383611939565b5050565b61164282610fc9565b611681576040517f08c379a000000000000000000000000000000000000000000000000000000000815260040161167890612673565b60405180910390fd5b806006600084815260200190815260200160002090805190602001906116a8929190611ca5565b505050565b8173ffffffffffffffffffffffffffffffffffffffff168373ffffffffffffffffffffffffffffffffffffffff16141561171c576040517f08c379a0000000000000000000000000000000000000000000000000000000008152600401611713906125d3565b60405180910390fd5b80600560008573ffffffffffffffffffffffffffffffffffffffff1673ffffffffffffffffffffffffffffffffffffffff16815260200190815260200160002060008473ffffffffffffffffffffffffffffffffffffffff1673ffffffffffffffffffffffffffffffffffffffff16815260200190815260200160002060006101000a81548160ff0219169083151502179055508173ffffffffffffffffffffffffffffffffffffffff168373ffffffffffffffffffffffffffffffffffffffff167f17307eab39ab6107e8899845ad3d59bd9653f200f220920489ca2b5937696c318360405161180d9190612516565b60405180910390a3505050565b6118258484846111d4565b6118318484848461193e565b611870576040517f08c379a000000000000000000000000000000000000000000000000000000000815260040161186790612553565b60405180910390fd5b50505050565b606060405180602001604052806000815250905090565b606061189882610fc9565b6118d7576040517f08c379a00000000000000000000000000000000000000000000000000000000081526004016118ce906126f3565b60405180910390fd5b60006118e1611876565b90506000815111611901576040518060200160405280600081525061192c565b8061190b84611ad5565b60405160200161191c929190612469565b6040516020818303038152906040525b915050919050565b505050565b505050565b600061195f8473ffffffffffffffffffffffffffffffffffffffff16611c82565b15611ac8578373ffffffffffffffffffffffffffffffffffffffff1663150b7a02611988611035565b8786866040518563ffffffff1660e01b81526004016119aa94939291906124a8565b602060405180830381600087803b1580156119c457600080fd5b505af19250505080156119f557506040513d601f19601f820116820180604052508101906119f29190612051565b60015b611a78573d8060008114611a25576040519150601f19603f3d011682016040523d82523d6000602084013e611a2a565b606091505b50600081511415611a70576040517f08c379a0000000000000000000000000000000000000000000000000000000008152600401611a6790612553565b60405180910390fd5b805181602001fd5b63150b7a0260e01b7bffffffffffffffffffffffffffffffffffffffffffffffffffffffff1916817bffffffffffffffffffffffffffffffffffffffffffffffffffffffff191614915050611acd565b600190505b949350505050565b60606000821415611b1d576040518060400160405280600181526020017f30000000000000000000000000000000000000000000000000000000000000008152509050611c7d565b600082905060005b60008214611b4f578080611b3890612a6f565b915050600a82611b4891906128c7565b9150611b25565b60008167ffffffffffffffff811115611b91577f4e487b7100000000000000000000000000000000000000000000000000000000600052604160045260246000fd5b6040519080825280601f01601f191660200182016040528015611bc35781602001600182028036833780820191505090505b5090505b60008514611c7657600182611bdc91906128f8565b9150600a85611beb9190612ab8565b6030611bf79190612871565b60f81b818381518110611c33577f4e487b7100000000000000000000000000000000000000000000000000000000600052603260045260246000fd5b60200101907effffffffffffffffffffffffffffffffffffffffffffffffffffffffffffff1916908160001a905350600a85611c6f91906128c7565b9450611bc7565b8093505050505b919050565b6000808273ffffffffffffffffffffffffffffffffffffffff163b119050919050565b828054611cb190612a0c565b90600052602060002090601f016020900481019282611cd35760008555611d1a565b82601f10611cec57805160ff1916838001178555611d1a565b82800160010185558215611d1a579182015b82811115611d19578251825591602001919060010190611cfe565b5b509050611d279190611d2b565b5090565b5b80821115611d44576000816000905550600101611d2c565b5090565b6000611d5b611d5684612793565b61276e565b905082815260208101848484011115611d7357600080fd5b611d7e8482856129a0565b509392505050565b6000611d99611d94846127c4565b61276e565b905082815260208101848484011115611db157600080fd5b611dbc8482856129a0565b509392505050565b600081359050611dd381613034565b92915050565b600081359050611de88161304b565b92915050565b600081359050611dfd81613062565b92915050565b600081519050611e1281613062565b92915050565b600082601f830112611e2957600080fd5b8135611e39848260208601611d48565b91505092915050565b600082601f830112611e5357600080fd5b8135611e63848260208601611d86565b91505092915050565b600081359050611e7b81613079565b92915050565b600060208284031215611e9357600080fd5b6000611ea184828501611dc4565b91505092915050565b60008060408385031215611ebd57600080fd5b6000611ecb85828601611dc4565b9250506020611edc85828601611dc4565b9150509250929050565b600080600060608486031215611efb57600080fd5b6000611f0986828701611dc4565b9350506020611f1a86828701611dc4565b9250506040611f2b86828701611e6c565b9150509250925092565b60008060008060808587031215611f4b57600080fd5b6000611f5987828801611dc4565b9450506020611f6a87828801611dc4565b9350506040611f7b87828801611e6c565b925050606085013567ffffffffffffffff811115611f9857600080fd5b611fa487828801611e18565b91505092959194509250565b60008060408385031215611fc357600080fd5b6000611fd185828601611dc4565b9250506020611fe285828601611dd9565b9150509250929050565b60008060408385031215611fff57600080fd5b600061200d85828601611dc4565b925050602061201e85828601611e6c565b9150509250929050565b60006020828403121561203a57600080fd5b600061204884828501611dee565b91505092915050565b60006020828403121561206357600080fd5b600061207184828501611e03565b91505092915050565b60006020828403121561208c57600080fd5b600082013567ffffffffffffffff8111156120a657600080fd5b6120b284828501611e42565b91505092915050565b6000602082840312156120cd57600080fd5b60006120db84828501611e6c565b91505092915050565b60006120f0838361244b565b60208301905092915050565b6121058161292c565b82525050565b600061211682612805565b6121208185612833565b935061212b836127f5565b8060005b8381101561215c57815161214388826120e4565b975061214e83612826565b92505060018101905061212f565b5085935050505092915050565b6121728161293e565b82525050565b600061218382612810565b61218d8185612844565b935061219d8185602086016129af565b6121a681612ba5565b840191505092915050565b60006121bc8261281b565b6121c68185612855565b93506121d68185602086016129af565b6121df81612ba5565b840191505092915050565b60006121f58261281b565b6121ff8185612866565b935061220f8185602086016129af565b80840191505092915050565b6000612228603283612855565b915061223382612bb6565b604082019050919050565b600061224b602583612855565b915061225682612c05565b604082019050919050565b600061226e601c83612855565b915061227982612c54565b602082019050919050565b6000612291602483612855565b915061229c82612c7d565b604082019050919050565b60006122b4601983612855565b91506122bf82612ccc565b602082019050919050565b60006122d7602c83612855565b91506122e282612cf5565b604082019050919050565b60006122fa603883612855565b915061230582612d44565b604082019050919050565b600061231d602a83612855565b915061232882612d93565b604082019050919050565b6000612340602983612855565b915061234b82612de2565b604082019050919050565b6000612363602e83612855565b915061236e82612e31565b604082019050919050565b6000612386602083612855565b915061239182612e80565b602082019050919050565b60006123a9603183612855565b91506123b482612ea9565b604082019050919050565b60006123cc602c83612855565b91506123d782612ef8565b604082019050919050565b60006123ef602f83612855565b91506123fa82612f47565b604082019050919050565b6000612412602183612855565b915061241d82612f96565b604082019050919050565b6000612435603183612855565b915061244082612fe5565b604082019050919050565b61245481612996565b82525050565b61246381612996565b82525050565b600061247582856121ea565b915061248182846121ea565b91508190509392505050565b60006020820190506124a260008301846120fc565b92915050565b60006080820190506124bd60008301876120fc565b6124ca60208301866120fc565b6124d7604083018561245a565b81810360608301526124e98184612178565b905095945050505050565b6000602082019050818103600083015261250e818461210b565b905092915050565b600060208201905061252b6000830184612169565b92915050565b6000602082019050818103600083015261254b81846121b1565b905092915050565b6000602082019050818103600083015261256c8161221b565b9050919050565b6000602082019050818103600083015261258c8161223e565b9050919050565b600060208201905081810360008301526125ac81612261565b9050919050565b600060208201905081810360008301526125cc81612284565b9050919050565b600060208201905081810360008301526125ec816122a7565b9050919050565b6000602082019050818103600083015261260c816122ca565b9050919050565b6000602082019050818103600083015261262c816122ed565b9050919050565b6000602082019050818103600083015261264c81612310565b9050919050565b6000602082019050818103600083015261266c81612333565b9050919050565b6000602082019050818103600083015261268c81612356565b9050919050565b600060208201905081810360008301526126ac81612379565b9050919050565b600060208201905081810360008301526126cc8161239c565b9050919050565b600060208201905081810360008301526126ec816123bf565b9050919050565b6000602082019050818103600083015261270c816123e2565b9050919050565b6000602082019050818103600083015261272c81612405565b9050919050565b6000602082019050818103600083015261274c81612428565b9050919050565b6000602082019050612768600083018461245a565b92915050565b6000612778612789565b90506127848282612a3e565b919050565b6000604051905090565b600067ffffffffffffffff8211156127ae576127ad612b76565b5b6127b782612ba5565b9050602081019050919050565b600067ffffffffffffffff8211156127df576127de612b76565b5b6127e882612ba5565b9050602081019050919050565b6000819050602082019050919050565b600081519050919050565b600081519050919050565b600081519050919050565b6000602082019050919050565b600082825260208201905092915050565b600082825260208201905092915050565b600082825260208201905092915050565b600081905092915050565b600061287c82612996565b915061288783612996565b9250827fffffffffffffffffffffffffffffffffffffffffffffffffffffffffffffffff038211156128bc576128bb612ae9565b5b828201905092915050565b60006128d282612996565b91506128dd83612996565b9250826128ed576128ec612b18565b5b828204905092915050565b600061290382612996565b915061290e83612996565b92508282101561292157612920612ae9565b5b828203905092915050565b600061293782612976565b9050919050565b60008115159050919050565b60007fffffffff0000000000000000000000000000000000000000000000000000000082169050919050565b600073ffffffffffffffffffffffffffffffffffffffff82169050919050565b6000819050919050565b82818337600083830152505050565b60005b838110156129cd5780820151818401526020810190506129b2565b838111156129dc576000848401525b50505050565b60006129ed82612996565b91506000821415612a0157612a00612ae9565b5b600182039050919050565b60006002820490506001821680612a2457607f821691505b60208210811415612a3857612a37612b47565b5b50919050565b612a4782612ba5565b810181811067ffffffffffffffff82111715612a6657612a65612b76565b5b80604052505050565b6000612a7a82612996565b91507fffffffffffffffffffffffffffffffffffffffffffffffffffffffffffffffff821415612aad57612aac612ae9565b5b600182019050919050565b6000612ac382612996565b9150612ace83612996565b925082612ade57612add612b18565b5b828206905092915050565b7f4e487b7100000000000000000000000000000000000000000000000000000000600052601160045260246000fd5b7f4e487b7100000000000000000000000000000000000000000000000000000000600052601260045260246000fd5b7f4e487b7100000000000000000000000000000000000000000000000000000000600052602260045260246000fd5b7f4e487b7100000000000000000000000000000000000000000000000000000000600052604160045260246000fd5b6000601f19601f8301169050919050565b7f4552433732313a207472616e7366657220746f206e6f6e20455243373231526560008201527f63656976657220696d706c656d656e7465720000000000000000000000000000602082015250565b7f4552433732313a207472616e736665722066726f6d20696e636f72726563742060008201527f6f776e6572000000000000000000000000000000000000000000000000000000602082015250565b7f4552433732313a20746f6b656e20616c7265616479206d696e74656400000000600082015250565b7f4552433732313a207472616e7366657220746f20746865207a65726f2061646460008201527f7265737300000000000000000000000000000000000000000000000000000000602082015250565b7f4552433732313a20617070726f766520746f2063616c6c657200000000000000600082015250565b7f4552433732313a206f70657261746f7220717565727920666f72206e6f6e657860008201527f697374656e7420746f6b656e0000000000000000000000000000000000000000602082015250565b7f4552433732313a20617070726f76652063616c6c6572206973206e6f74206f7760008201527f6e6572206e6f7220617070726f76656420666f7220616c6c0000000000000000602082015250565b7f4552433732313a2062616c616e636520717565727920666f7220746865207a6560008201527f726f206164647265737300000000000000000000000000000000000000000000602082015250565b7f4552433732313a206f776e657220717565727920666f72206e6f6e657869737460008201527f656e7420746f6b656e0000000000000000000000000000000000000000000000602082015250565b7f45524337323155524953746f726167653a2055524920736574206f66206e6f6e60008201527f6578697374656e7420746f6b656e000000000000000000000000000000000000602082015250565b7f4552433732313a206d696e7420746f20746865207a65726f2061646472657373600082015250565b7f45524337323155524953746f726167653a2055524920717565727920666f722060008201527f6e6f6e6578697374656e7420746f6b656e000000000000000000000000000000602082015250565b7f4552433732313a20617070726f76656420717565727920666f72206e6f6e657860008201527f697374656e7420746f6b656e0000000000000000000000000000000000000000602082015250565b7f4552433732314d657461646174613a2055524920717565727920666f72206e6f60008201527f6e6578697374656e7420746f6b656e0000000000000000000000000000000000602082015250565b7f4552433732313a20617070726f76616c20746f2063757272656e74206f776e6560008201527f7200000000000000000000000000000000000000000000000000000000000000602082015250565b7f4552433732313a207472616e736665722063616c6c6572206973206e6f74206f60008201527f776e6572206e6f7220617070726f766564000000000000000000000000000000602082015250565b61303d8161292c565b811461304857600080fd5b50565b6130548161293e565b811461305f57600080fd5b50565b61306b8161294a565b811461307657600080fd5b50565b61308281612996565b811461308d57600080fd5b5056fea2646970667358221220a1b0ae3edac91d82d05a6a2d4e70087ff7b0d03ff63c4ba13eb2afd46db617e664736f6c63430008040033",
  "linkReferences": {},
  "deployedLinkReferences": {}
}