{
  "_format": "hh-sol-artifact-1",
  "contractName": "Burnable",
  "sourceName": "contracts/MemorialNFT.sol",
  "abi": [
    {
      "inputs": [],
      "stateMutability": "nonpayable",
      "type": "constructor"
    },
    {
      "anonymous": false,
      "inputs": [
        {
          "indexed": true,
          "internalType": "address",
          "name": "owner",
          "type": "address"
        },
        {
          "indexed": true,
          "internalType": "address",
          "name": "approved",
          "type": "address"
        },
        {
          "indexed": true,
          "internalType": "uint256",
          "name": "tokenId",
          "type": "uint256"
        }
      ],
      "name": "Approval",
      "type": "event"
    },
    {
      "anonymous": false,
      "inputs": [
        {
          "indexed": true,
          "internalType": "address",
          "name": "owner",
          "type": "address"
        },
        {
          "indexed": true,
          "internalType": "address",
          "name": "operator",
          "type": "address"
        },
        {
          "indexed": false,
          "internalType": "bool",
          "name": "approved",
          "type": "bool"
        }
      ],
      "name": "ApprovalForAll",
      "type": "event"
    },
    {
      "anonymous": false,
      "inputs": [
        {
          "indexed": true,
          "internalType": "address",
          "name": "from",
          "type": "address"
        },
        {
          "indexed": true,
          "internalType": "address",
          "name": "to",
          "type": "address"
        },
        {
          "indexed": true,
          "internalType": "uint256",
          "name": "tokenId",
          "type": "uint256"
        }
      ],
      "name": "Transfer",
      "type": "event"
    },
    {
      "inputs": [
        {
          "internalType": "address",
          "name": "to",
          "type": "address"
        },
        {
          "internalType": "uint256",
          "name": "tokenId",
          "type": "uint256"
        }
      ],
      "name": "approve",
      "outputs": [],
      "stateMutability": "nonpayable",
      "type": "function"
    },
    {
      "inputs": [
        {
          "internalType": "address",
          "name": "owner",
          "type": "address"
        }
      ],
      "name": "balanceOf",
      "outputs": [
        {
          "internalType": "uint256",
          "name": "",
          "type": "uint256"
        }
      ],
      "stateMutability": "view",
      "type": "function"
    },
    {
      "inputs": [
        {
          "internalType": "uint256",
          "name": "_tokenId",
          "type": "uint256"
        }
      ],
      "name": "burn",
      "outputs": [],
      "stateMutability": "nonpayable",
      "type": "function"
    },
    {
      "inputs": [
        {
          "internalType": "uint256",
          "name": "tokenId",
          "type": "uint256"
        }
      ],
      "name": "getApproved",
      "outputs": [
        {
          "internalType": "address",
          "name": "",
          "type": "address"
        }
      ],
      "stateMutability": "view",
      "type": "function"
    },
    {
      "inputs": [
        {
          "internalType": "address",
          "name": "_owner",
          "type": "address"
        }
      ],
      "name": "getURIByOwner",
      "outputs": [
        {
          "internalType": "uint256[]",
          "name": "",
          "type": "uint256[]"
        }
      ],
      "stateMutability": "view",
      "type": "function"
    },
    {
      "inputs": [
        {
          "internalType": "address",
          "name": "owner",
          "type": "address"
        },
        {
          "internalType": "address",
          "name": "operator",
          "type": "address"
        }
      ],
      "name": "isApprovedForAll",
      "outputs": [
        {
          "internalType": "bool",
          "name": "",
          "type": "bool"
        }
      ],
      "stateMutability": "view",
      "type": "function"
    },
    {
      "inputs": [
        {
          "internalType": "string",
          "name": "tokenURI",
          "type": "string"
        }
      ],
      "name": "mintBurnable",
      "outputs": [
        {
          "internalType": "uint256",
          "name": "",
          "type": "uint256"
        }
      ],
      "stateMutability": "payable",
      "type": "function"
    },
    {
      "inputs": [],
      "name": "name",
      "outputs": [
        {
          "internalType": "string",
          "name": "",
          "type": "string"
        }
      ],
      "stateMutability": "view",
      "type": "function"
    },
    {
      "inputs": [
        {
          "internalType": "uint256",
          "name": "tokenId",
          "type": "uint256"
        }
      ],
      "name": "ownerOf",
      "outputs": [
        {
          "internalType": "address",
          "name": "",
          "type": "address"
        }
      ],
      "stateMutability": "view",
      "type": "function"
    },
    {
      "inputs": [
        {
          "internalType": "address",
          "name": "from",
          "type": "address"
        },
        {
          "internalType": "address",
          "name": "to",
          "type": "address"
        },
        {
          "internalType": "uint256",
          "name": "tokenId",
          "type": "uint256"
        }
      ],
      "name": "safeTransferFrom",
      "outputs": [],
      "stateMutability": "nonpayable",
      "type": "function"
    },
    {
      "inputs": [
        {
          "internalType": "address",
          "name": "from",
          "type": "address"
        },
        {
          "internalType": "address",
          "name": "to",
          "type": "address"
        },
        {
          "internalType": "uint256",
          "name": "tokenId",
          "type": "uint256"
        },
        {
          "internalType": "bytes",
          "name": "_data",
          "type": "bytes"
        }
      ],
      "name": "safeTransferFrom",
      "outputs": [],
      "stateMutability": "nonpayable",
      "type": "function"
    },
    {
      "inputs": [
        {
          "internalType": "address",
          "name": "operator",
          "type": "address"
        },
        {
          "internalType": "bool",
          "name": "approved",
          "type": "bool"
        }
      ],
      "name": "setApprovalForAll",
      "outputs": [],
      "stateMutability": "nonpayable",
      "type": "function"
    },
    {
      "inputs": [
        {
          "internalType": "bytes4",
          "name": "interfaceId",
          "type": "bytes4"
        }
      ],
      "name": "supportsInterface",
      "outputs": [
        {
          "internalType": "bool",
          "name": "",
          "type": "bool"
        }
      ],
      "stateMutability": "view",
      "type": "function"
    },
    {
      "inputs": [],
      "name": "symbol",
      "outputs": [
        {
          "internalType": "string",
          "name": "",
          "type": "string"
        }
      ],
      "stateMutability": "view",
      "type": "function"
    },
    {
      "inputs": [
        {
          "internalType": "uint256",
          "name": "tokenId",
          "type": "uint256"
        }
      ],
      "name": "tokenURI",
      "outputs": [
        {
          "internalType": "string",
          "name": "",
          "type": "string"
        }
      ],
      "stateMutability": "view",
      "type": "function"
    },
    {
      "inputs": [
        {
          "internalType": "address",
          "name": "from",
          "type": "address"
        },
        {
          "internalType": "address",
          "name": "to",
          "type": "address"
        },
        {
          "internalType": "uint256",
          "name": "tokenId",
          "type": "uint256"
        }
      ],
      "name": "transferFrom",
      "outputs": [],
      "stateMutability": "nonpayable",
      "type": "function"
    }
  ],
  "bytecode": "0x60806040526706f05b59d3b200006008553480156200001d57600080fd5b506040518060400160405280600881526020017f4275726e61626c650000000000000000000000000000000000000000000000008152506040518060400160405280600481526020017f4255524e000000000000000000000000000000000000000000000000000000008152508160009080519060200190620000a2929190620000c4565b508060019080519060200190620000bb929190620000c4565b505050620001d9565b828054620000d29062000174565b90600052602060002090601f016020900481019282620000f6576000855562000142565b82601f106200011157805160ff191683800117855562000142565b8280016001018555821562000142579182015b828111156200014157825182559160200191906001019062000124565b5b50905062000151919062000155565b5090565b5b808211156200017057600081600090555060010162000156565b5090565b600060028204905060018216806200018d57607f821691505b60208210811415620001a457620001a3620001aa565b5b50919050565b7f4e487b7100000000000000000000000000000000000000000000000000000000600052602260045260246000fd5b61307b80620001e96000396000f3fe6080604052600436106100f35760003560e01c80636352211e1161008a578063b88d4fde11610059578063b88d4fde1461033f578063c87b56dd14610368578063e985e9c5146103a5578063f22e6a73146103e2576100f3565b80636352211e1461027157806370a08231146102ae57806395d89b41146102eb578063a22cb46514610316576100f3565b806323b872dd116100c657806323b872dd146101c657806342842e0e146101ef57806342966c68146102185780635775c49614610241576100f3565b806301ffc9a7146100f857806306fdde0314610135578063081812fc14610160578063095ea7b31461019d575b600080fd5b34801561010457600080fd5b5061011f600480360381019061011a9190611fdd565b61041f565b60405161012c91906124cb565b60405180910390f35b34801561014157600080fd5b5061014a610501565b60405161015791906124e6565b60405180910390f35b34801561016c57600080fd5b5061018760048036038101906101829190612070565b610593565b6040516101949190612442565b60405180910390f35b3480156101a957600080fd5b506101c460048036038101906101bf9190611fa1565b610618565b005b3480156101d257600080fd5b506101ed60048036038101906101e89190611e9b565b610730565b005b3480156101fb57600080fd5b5061021660048036038101906102119190611e9b565b610790565b005b34801561022457600080fd5b5061023f600480360381019061023a9190612070565b6107b0565b005b61025b6004803603810190610256919061202f565b6108a4565b6040516102689190612708565b60405180910390f35b34801561027d57600080fd5b5061029860048036038101906102939190612070565b61093e565b6040516102a59190612442565b60405180910390f35b3480156102ba57600080fd5b506102d560048036038101906102d09190611e36565b6109f0565b6040516102e29190612708565b60405180910390f35b3480156102f757600080fd5b50610300610aa8565b60405161030d91906124e6565b60405180910390f35b34801561032257600080fd5b5061033d60048036038101906103389190611f65565b610b3a565b005b34801561034b57600080fd5b5061036660048036038101906103619190611eea565b610b50565b005b34801561037457600080fd5b5061038f600480360381019061038a9190612070565b610bb2565b60405161039c91906124e6565b60405180910390f35b3480156103b157600080fd5b506103cc60048036038101906103c79190611e5f565b610d04565b6040516103d991906124cb565b60405180910390f35b3480156103ee57600080fd5b5061040960048036038101906104049190611e36565b610d98565b60405161041691906124a9565b60405180910390f35b60007f80ac58cd000000000000000000000000000000000000000000000000000000007bffffffffffffffffffffffffffffffffffffffffffffffffffffffff1916827bffffffffffffffffffffffffffffffffffffffffffffffffffffffff191614806104ea57507f5b5e139f000000000000000000000000000000000000000000000000000000007bffffffffffffffffffffffffffffffffffffffffffffffffffffffff1916827bffffffffffffffffffffffffffffffffffffffffffffffffffffffff1916145b806104fa57506104f982610f14565b5b9050919050565b606060008054610510906129c1565b80601f016020809104026020016040519081016040528092919081815260200182805461053c906129c1565b80156105895780601f1061055e57610100808354040283529160200191610589565b820191906000526020600020905b81548152906001019060200180831161056c57829003601f168201915b5050505050905090565b600061059e82610f7e565b6105dd576040517f08c379a00000000000000000000000000000000000000000000000000000000081526004016105d490612688565b60405180910390fd5b6004600083815260200190815260200160002060009054906101000a900473ffffffffffffffffffffffffffffffffffffffff169050919050565b60006106238261093e565b90508073ffffffffffffffffffffffffffffffffffffffff168373ffffffffffffffffffffffffffffffffffffffff161415610694576040517f08c379a000000000000000000000000000000000000000000000000000000000815260040161068b906126c8565b60405180910390fd5b8073ffffffffffffffffffffffffffffffffffffffff166106b3610fea565b73ffffffffffffffffffffffffffffffffffffffff1614806106e257506106e1816106dc610fea565b610d04565b5b610721576040517f08c379a0000000000000000000000000000000000000000000000000000000008152600401610718906125c8565b60405180910390fd5b61072b8383610ff2565b505050565b61074161073b610fea565b826110ab565b610780576040517f08c379a0000000000000000000000000000000000000000000000000000000008152600401610777906126e8565b60405180910390fd5b61078b838383611189565b505050565b6107ab83838360405180602001604052806000815250610b50565b505050565b3373ffffffffffffffffffffffffffffffffffffffff166107d08261093e565b73ffffffffffffffffffffffffffffffffffffffff16146107f057600080fd5b6107fd3361dead83611189565b60003390508073ffffffffffffffffffffffffffffffffffffffff166108fc6008549081150290604051600060405180830381858888f1935050505015801561084a573d6000803e3d6000fd5b50600960003373ffffffffffffffffffffffffffffffffffffffff1673ffffffffffffffffffffffffffffffffffffffff168152602001908152602001600020600081548092919061089b90612997565b91905055505050565b600060085434146108b457600080fd5b6108be60076113f0565b60006108ca6007611406565b90506108d63382611414565b6108e081846115ee565b600960003373ffffffffffffffffffffffffffffffffffffffff1673ffffffffffffffffffffffffffffffffffffffff168152602001908152602001600020600081548092919061093090612a24565b919050555080915050919050565b6000806002600084815260200190815260200160002060009054906101000a900473ffffffffffffffffffffffffffffffffffffffff169050600073ffffffffffffffffffffffffffffffffffffffff168173ffffffffffffffffffffffffffffffffffffffff1614156109e7576040517f08c379a00000000000000000000000000000000000000000000000000000000081526004016109de90612608565b60405180910390fd5b80915050919050565b60008073ffffffffffffffffffffffffffffffffffffffff168273ffffffffffffffffffffffffffffffffffffffff161415610a61576040517f08c379a0000000000000000000000000000000000000000000000000000000008152600401610a58906125e8565b60405180910390fd5b600360008373ffffffffffffffffffffffffffffffffffffffff1673ffffffffffffffffffffffffffffffffffffffff168152602001908152602001600020549050919050565b606060018054610ab7906129c1565b80601f0160208091040260200160405190810160405280929190818152602001828054610ae3906129c1565b8015610b305780601f10610b0557610100808354040283529160200191610b30565b820191906000526020600020905b815481529060010190602001808311610b1357829003601f168201915b5050505050905090565b610b4c610b45610fea565b8383611662565b5050565b610b61610b5b610fea565b836110ab565b610ba0576040517f08c379a0000000000000000000000000000000000000000000000000000000008152600401610b97906126e8565b60405180910390fd5b610bac848484846117cf565b50505050565b6060610bbd82610f7e565b610bfc576040517f08c379a0000000000000000000000000000000000000000000000000000000008152600401610bf390612668565b60405180910390fd5b6000600660008481526020019081526020016000208054610c1c906129c1565b80601f0160208091040260200160405190810160405280929190818152602001828054610c48906129c1565b8015610c955780601f10610c6a57610100808354040283529160200191610c95565b820191906000526020600020905b815481529060010190602001808311610c7857829003601f168201915b505050505090506000610ca661182b565b9050600081511415610cbc578192505050610cff565b600082511115610cf1578082604051602001610cd992919061241e565b60405160208183030381529060405292505050610cff565b610cfa84611842565b925050505b919050565b6000600560008473ffffffffffffffffffffffffffffffffffffffff1673ffffffffffffffffffffffffffffffffffffffff16815260200190815260200160002060008373ffffffffffffffffffffffffffffffffffffffff1673ffffffffffffffffffffffffffffffffffffffff16815260200190815260200160002060009054906101000a900460ff16905092915050565b60606000600960008473ffffffffffffffffffffffffffffffffffffffff1673ffffffffffffffffffffffffffffffffffffffff1681526020019081526020016000205467ffffffffffffffff811115610e1b577f4e487b7100000000000000000000000000000000000000000000000000000000600052604160045260246000fd5b604051908082528060200260200182016040528015610e495781602001602082028036833780820191505090505b509050600080600190505b610e5e6007611406565b811015610f09578473ffffffffffffffffffffffffffffffffffffffff16610e858261093e565b73ffffffffffffffffffffffffffffffffffffffff161415610ef65780838381518110610edb577f4e487b7100000000000000000000000000000000000000000000000000000000600052603260045260246000fd5b6020026020010181815250508180610ef290612a24565b9250505b8080610f0190612a24565b915050610e54565b508192505050919050565b60007f01ffc9a7000000000000000000000000000000000000000000000000000000007bffffffffffffffffffffffffffffffffffffffffffffffffffffffff1916827bffffffffffffffffffffffffffffffffffffffffffffffffffffffff1916149050919050565b60008073ffffffffffffffffffffffffffffffffffffffff166002600084815260200190815260200160002060009054906101000a900473ffffffffffffffffffffffffffffffffffffffff1673ffffffffffffffffffffffffffffffffffffffff1614159050919050565b600033905090565b816004600083815260200190815260200160002060006101000a81548173ffffffffffffffffffffffffffffffffffffffff021916908373ffffffffffffffffffffffffffffffffffffffff160217905550808273ffffffffffffffffffffffffffffffffffffffff166110658361093e565b73ffffffffffffffffffffffffffffffffffffffff167f8c5be1e5ebec7d5bd14f71427d1e84f3dd0314c0f7b2291e5b200ac8c7c3b92560405160405180910390a45050565b60006110b682610f7e565b6110f5576040517f08c379a00000000000000000000000000000000000000000000000000000000081526004016110ec906125a8565b60405180910390fd5b60006111008361093e565b90508073ffffffffffffffffffffffffffffffffffffffff168473ffffffffffffffffffffffffffffffffffffffff16148061116f57508373ffffffffffffffffffffffffffffffffffffffff1661115784610593565b73ffffffffffffffffffffffffffffffffffffffff16145b80611180575061117f8185610d04565b5b91505092915050565b8273ffffffffffffffffffffffffffffffffffffffff166111a98261093e565b73ffffffffffffffffffffffffffffffffffffffff16146111ff576040517f08c379a00000000000000000000000000000000000000000000000000000000081526004016111f690612528565b60405180910390fd5b600073ffffffffffffffffffffffffffffffffffffffff168273ffffffffffffffffffffffffffffffffffffffff16141561126f576040517f08c379a000000000000000000000000000000000000000000000000000000000815260040161126690612568565b60405180910390fd5b61127a8383836118e9565b611285600082610ff2565b6001600360008573ffffffffffffffffffffffffffffffffffffffff1673ffffffffffffffffffffffffffffffffffffffff16815260200190815260200160002060008282546112d591906128ad565b925050819055506001600360008473ffffffffffffffffffffffffffffffffffffffff1673ffffffffffffffffffffffffffffffffffffffff168152602001908152602001600020600082825461132c9190612826565b92505081905550816002600083815260200190815260200160002060006101000a81548173ffffffffffffffffffffffffffffffffffffffff021916908373ffffffffffffffffffffffffffffffffffffffff160217905550808273ffffffffffffffffffffffffffffffffffffffff168473ffffffffffffffffffffffffffffffffffffffff167fddf252ad1be2c89b69c2b068fc378daa952ba7f163c4a11628f55a4df523b3ef60405160405180910390a46113eb8383836118ee565b505050565b6001816000016000828254019250508190555050565b600081600001549050919050565b600073ffffffffffffffffffffffffffffffffffffffff168273ffffffffffffffffffffffffffffffffffffffff161415611484576040517f08c379a000000000000000000000000000000000000000000000000000000000815260040161147b90612648565b60405180910390fd5b61148d81610f7e565b156114cd576040517f08c379a00000000000000000000000000000000000000000000000000000000081526004016114c490612548565b60405180910390fd5b6114d9600083836118e9565b6001600360008473ffffffffffffffffffffffffffffffffffffffff1673ffffffffffffffffffffffffffffffffffffffff16815260200190815260200160002060008282546115299190612826565b92505081905550816002600083815260200190815260200160002060006101000a81548173ffffffffffffffffffffffffffffffffffffffff021916908373ffffffffffffffffffffffffffffffffffffffff160217905550808273ffffffffffffffffffffffffffffffffffffffff16600073ffffffffffffffffffffffffffffffffffffffff167fddf252ad1be2c89b69c2b068fc378daa952ba7f163c4a11628f55a4df523b3ef60405160405180910390a46115ea600083836118ee565b5050565b6115f782610f7e565b611636576040517f08c379a000000000000000000000000000000000000000000000000000000000815260040161162d90612628565b60405180910390fd5b8060066000848152602001908152602001600020908051906020019061165d929190611c5a565b505050565b8173ffffffffffffffffffffffffffffffffffffffff168373ffffffffffffffffffffffffffffffffffffffff1614156116d1576040517f08c379a00000000000000000000000000000000000000000000000000000000081526004016116c890612588565b60405180910390fd5b80600560008573ffffffffffffffffffffffffffffffffffffffff1673ffffffffffffffffffffffffffffffffffffffff16815260200190815260200160002060008473ffffffffffffffffffffffffffffffffffffffff1673ffffffffffffffffffffffffffffffffffffffff16815260200190815260200160002060006101000a81548160ff0219169083151502179055508173ffffffffffffffffffffffffffffffffffffffff168373ffffffffffffffffffffffffffffffffffffffff167f17307eab39ab6107e8899845ad3d59bd9653f200f220920489ca2b5937696c31836040516117c291906124cb565b60405180910390a3505050565b6117da848484611189565b6117e6848484846118f3565b611825576040517f08c379a000000000000000000000000000000000000000000000000000000000815260040161181c90612508565b60405180910390fd5b50505050565b606060405180602001604052806000815250905090565b606061184d82610f7e565b61188c576040517f08c379a0000000000000000000000000000000000000000000000000000000008152600401611883906126a8565b60405180910390fd5b600061189661182b565b905060008151116118b657604051806020016040528060008152506118e1565b806118c084611a8a565b6040516020016118d192919061241e565b6040516020818303038152906040525b915050919050565b505050565b505050565b60006119148473ffffffffffffffffffffffffffffffffffffffff16611c37565b15611a7d578373ffffffffffffffffffffffffffffffffffffffff1663150b7a0261193d610fea565b8786866040518563ffffffff1660e01b815260040161195f949392919061245d565b602060405180830381600087803b15801561197957600080fd5b505af19250505080156119aa57506040513d601f19601f820116820180604052508101906119a79190612006565b60015b611a2d573d80600081146119da576040519150601f19603f3d011682016040523d82523d6000602084013e6119df565b606091505b50600081511415611a25576040517f08c379a0000000000000000000000000000000000000000000000000000000008152600401611a1c90612508565b60405180910390fd5b805181602001fd5b63150b7a0260e01b7bffffffffffffffffffffffffffffffffffffffffffffffffffffffff1916817bffffffffffffffffffffffffffffffffffffffffffffffffffffffff191614915050611a82565b600190505b949350505050565b60606000821415611ad2576040518060400160405280600181526020017f30000000000000000000000000000000000000000000000000000000000000008152509050611c32565b600082905060005b60008214611b04578080611aed90612a24565b915050600a82611afd919061287c565b9150611ada565b60008167ffffffffffffffff811115611b46577f4e487b7100000000000000000000000000000000000000000000000000000000600052604160045260246000fd5b6040519080825280601f01601f191660200182016040528015611b785781602001600182028036833780820191505090505b5090505b60008514611c2b57600182611b9191906128ad565b9150600a85611ba09190612a6d565b6030611bac9190612826565b60f81b818381518110611be8577f4e487b7100000000000000000000000000000000000000000000000000000000600052603260045260246000fd5b60200101907effffffffffffffffffffffffffffffffffffffffffffffffffffffffffffff1916908160001a905350600a85611c24919061287c565b9450611b7c565b8093505050505b919050565b6000808273ffffffffffffffffffffffffffffffffffffffff163b119050919050565b828054611c66906129c1565b90600052602060002090601f016020900481019282611c885760008555611ccf565b82601f10611ca157805160ff1916838001178555611ccf565b82800160010185558215611ccf579182015b82811115611cce578251825591602001919060010190611cb3565b5b509050611cdc9190611ce0565b5090565b5b80821115611cf9576000816000905550600101611ce1565b5090565b6000611d10611d0b84612748565b612723565b905082815260208101848484011115611d2857600080fd5b611d33848285612955565b509392505050565b6000611d4e611d4984612779565b612723565b905082815260208101848484011115611d6657600080fd5b611d71848285612955565b509392505050565b600081359050611d8881612fe9565b92915050565b600081359050611d9d81613000565b92915050565b600081359050611db281613017565b92915050565b600081519050611dc781613017565b92915050565b600082601f830112611dde57600080fd5b8135611dee848260208601611cfd565b91505092915050565b600082601f830112611e0857600080fd5b8135611e18848260208601611d3b565b91505092915050565b600081359050611e308161302e565b92915050565b600060208284031215611e4857600080fd5b6000611e5684828501611d79565b91505092915050565b60008060408385031215611e7257600080fd5b6000611e8085828601611d79565b9250506020611e9185828601611d79565b9150509250929050565b600080600060608486031215611eb057600080fd5b6000611ebe86828701611d79565b9350506020611ecf86828701611d79565b9250506040611ee086828701611e21565b9150509250925092565b60008060008060808587031215611f0057600080fd5b6000611f0e87828801611d79565b9450506020611f1f87828801611d79565b9350506040611f3087828801611e21565b925050606085013567ffffffffffffffff811115611f4d57600080fd5b611f5987828801611dcd565b91505092959194509250565b60008060408385031215611f7857600080fd5b6000611f8685828601611d79565b9250506020611f9785828601611d8e565b9150509250929050565b60008060408385031215611fb457600080fd5b6000611fc285828601611d79565b9250506020611fd385828601611e21565b9150509250929050565b600060208284031215611fef57600080fd5b6000611ffd84828501611da3565b91505092915050565b60006020828403121561201857600080fd5b600061202684828501611db8565b91505092915050565b60006020828403121561204157600080fd5b600082013567ffffffffffffffff81111561205b57600080fd5b61206784828501611df7565b91505092915050565b60006020828403121561208257600080fd5b600061209084828501611e21565b91505092915050565b60006120a58383612400565b60208301905092915050565b6120ba816128e1565b82525050565b60006120cb826127ba565b6120d581856127e8565b93506120e0836127aa565b8060005b838110156121115781516120f88882612099565b9750612103836127db565b9250506001810190506120e4565b5085935050505092915050565b612127816128f3565b82525050565b6000612138826127c5565b61214281856127f9565b9350612152818560208601612964565b61215b81612b5a565b840191505092915050565b6000612171826127d0565b61217b818561280a565b935061218b818560208601612964565b61219481612b5a565b840191505092915050565b60006121aa826127d0565b6121b4818561281b565b93506121c4818560208601612964565b80840191505092915050565b60006121dd60328361280a565b91506121e882612b6b565b604082019050919050565b600061220060258361280a565b915061220b82612bba565b604082019050919050565b6000612223601c8361280a565b915061222e82612c09565b602082019050919050565b600061224660248361280a565b915061225182612c32565b604082019050919050565b600061226960198361280a565b915061227482612c81565b602082019050919050565b600061228c602c8361280a565b915061229782612caa565b604082019050919050565b60006122af60388361280a565b91506122ba82612cf9565b604082019050919050565b60006122d2602a8361280a565b91506122dd82612d48565b604082019050919050565b60006122f560298361280a565b915061230082612d97565b604082019050919050565b6000612318602e8361280a565b915061232382612de6565b604082019050919050565b600061233b60208361280a565b915061234682612e35565b602082019050919050565b600061235e60318361280a565b915061236982612e5e565b604082019050919050565b6000612381602c8361280a565b915061238c82612ead565b604082019050919050565b60006123a4602f8361280a565b91506123af82612efc565b604082019050919050565b60006123c760218361280a565b91506123d282612f4b565b604082019050919050565b60006123ea60318361280a565b91506123f582612f9a565b604082019050919050565b6124098161294b565b82525050565b6124188161294b565b82525050565b600061242a828561219f565b9150612436828461219f565b91508190509392505050565b600060208201905061245760008301846120b1565b92915050565b600060808201905061247260008301876120b1565b61247f60208301866120b1565b61248c604083018561240f565b818103606083015261249e818461212d565b905095945050505050565b600060208201905081810360008301526124c381846120c0565b905092915050565b60006020820190506124e0600083018461211e565b92915050565b600060208201905081810360008301526125008184612166565b905092915050565b60006020820190508181036000830152612521816121d0565b9050919050565b60006020820190508181036000830152612541816121f3565b9050919050565b6000602082019050818103600083015261256181612216565b9050919050565b6000602082019050818103600083015261258181612239565b9050919050565b600060208201905081810360008301526125a18161225c565b9050919050565b600060208201905081810360008301526125c18161227f565b9050919050565b600060208201905081810360008301526125e1816122a2565b9050919050565b60006020820190508181036000830152612601816122c5565b9050919050565b60006020820190508181036000830152612621816122e8565b9050919050565b600060208201905081810360008301526126418161230b565b9050919050565b600060208201905081810360008301526126618161232e565b9050919050565b6000602082019050818103600083015261268181612351565b9050919050565b600060208201905081810360008301526126a181612374565b9050919050565b600060208201905081810360008301526126c181612397565b9050919050565b600060208201905081810360008301526126e1816123ba565b9050919050565b60006020820190508181036000830152612701816123dd565b9050919050565b600060208201905061271d600083018461240f565b92915050565b600061272d61273e565b905061273982826129f3565b919050565b6000604051905090565b600067ffffffffffffffff82111561276357612762612b2b565b5b61276c82612b5a565b9050602081019050919050565b600067ffffffffffffffff82111561279457612793612b2b565b5b61279d82612b5a565b9050602081019050919050565b6000819050602082019050919050565b600081519050919050565b600081519050919050565b600081519050919050565b6000602082019050919050565b600082825260208201905092915050565b600082825260208201905092915050565b600082825260208201905092915050565b600081905092915050565b60006128318261294b565b915061283c8361294b565b9250827fffffffffffffffffffffffffffffffffffffffffffffffffffffffffffffffff0382111561287157612870612a9e565b5b828201905092915050565b60006128878261294b565b91506128928361294b565b9250826128a2576128a1612acd565b5b828204905092915050565b60006128b88261294b565b91506128c38361294b565b9250828210156128d6576128d5612a9e565b5b828203905092915050565b60006128ec8261292b565b9050919050565b60008115159050919050565b60007fffffffff0000000000000000000000000000000000000000000000000000000082169050919050565b600073ffffffffffffffffffffffffffffffffffffffff82169050919050565b6000819050919050565b82818337600083830152505050565b60005b83811015612982578082015181840152602081019050612967565b83811115612991576000848401525b50505050565b60006129a28261294b565b915060008214156129b6576129b5612a9e565b5b600182039050919050565b600060028204905060018216806129d957607f821691505b602082108114156129ed576129ec612afc565b5b50919050565b6129fc82612b5a565b810181811067ffffffffffffffff82111715612a1b57612a1a612b2b565b5b80604052505050565b6000612a2f8261294b565b91507fffffffffffffffffffffffffffffffffffffffffffffffffffffffffffffffff821415612a6257612a61612a9e565b5b600182019050919050565b6000612a788261294b565b9150612a838361294b565b925082612a9357612a92612acd565b5b828206905092915050565b7f4e487b7100000000000000000000000000000000000000000000000000000000600052601160045260246000fd5b7f4e487b7100000000000000000000000000000000000000000000000000000000600052601260045260246000fd5b7f4e487b7100000000000000000000000000000000000000000000000000000000600052602260045260246000fd5b7f4e487b7100000000000000000000000000000000000000000000000000000000600052604160045260246000fd5b6000601f19601f8301169050919050565b7f4552433732313a207472616e7366657220746f206e6f6e20455243373231526560008201527f63656976657220696d706c656d656e7465720000000000000000000000000000602082015250565b7f4552433732313a207472616e736665722066726f6d20696e636f72726563742060008201527f6f776e6572000000000000000000000000000000000000000000000000000000602082015250565b7f4552433732313a20746f6b656e20616c7265616479206d696e74656400000000600082015250565b7f4552433732313a207472616e7366657220746f20746865207a65726f2061646460008201527f7265737300000000000000000000000000000000000000000000000000000000602082015250565b7f4552433732313a20617070726f766520746f2063616c6c657200000000000000600082015250565b7f4552433732313a206f70657261746f7220717565727920666f72206e6f6e657860008201527f697374656e7420746f6b656e0000000000000000000000000000000000000000602082015250565b7f4552433732313a20617070726f76652063616c6c6572206973206e6f74206f7760008201527f6e6572206e6f7220617070726f76656420666f7220616c6c0000000000000000602082015250565b7f4552433732313a2062616c616e636520717565727920666f7220746865207a6560008201527f726f206164647265737300000000000000000000000000000000000000000000602082015250565b7f4552433732313a206f776e657220717565727920666f72206e6f6e657869737460008201527f656e7420746f6b656e0000000000000000000000000000000000000000000000602082015250565b7f45524337323155524953746f726167653a2055524920736574206f66206e6f6e60008201527f6578697374656e7420746f6b656e000000000000000000000000000000000000602082015250565b7f4552433732313a206d696e7420746f20746865207a65726f2061646472657373600082015250565b7f45524337323155524953746f726167653a2055524920717565727920666f722060008201527f6e6f6e6578697374656e7420746f6b656e000000000000000000000000000000602082015250565b7f4552433732313a20617070726f76656420717565727920666f72206e6f6e657860008201527f697374656e7420746f6b656e0000000000000000000000000000000000000000602082015250565b7f4552433732314d657461646174613a2055524920717565727920666f72206e6f60008201527f6e6578697374656e7420746f6b656e0000000000000000000000000000000000602082015250565b7f4552433732313a20617070726f76616c20746f2063757272656e74206f776e6560008201527f7200000000000000000000000000000000000000000000000000000000000000602082015250565b7f4552433732313a207472616e736665722063616c6c6572206973206e6f74206f60008201527f776e6572206e6f7220617070726f766564000000000000000000000000000000602082015250565b612ff2816128e1565b8114612ffd57600080fd5b50565b613009816128f3565b811461301457600080fd5b50565b613020816128ff565b811461302b57600080fd5b50565b6130378161294b565b811461304257600080fd5b5056fea26469706673582212207357e41c83ed6ad3a07ef8c243a1ed255e71be42c5e8dfb280af3f6ad5f6e9ee64736f6c63430008040033",
  "linkReferences": {},
  "deployedLinkReferences": {}
}