{
  "_format": "hh-sol-artifact-1",
  "contractName": "Burnable",
  "sourceName": "contracts/MemorialNFT.sol",
  "abi": [
    {
      "inputs": [],
      "stateMutability": "nonpayable",
      "type": "constructor"
    },
    {
      "anonymous": false,
      "inputs": [
        {
          "indexed": true,
          "internalType": "address",
          "name": "owner",
          "type": "address"
        },
        {
          "indexed": true,
          "internalType": "address",
          "name": "approved",
          "type": "address"
        },
        {
          "indexed": true,
          "internalType": "uint256",
          "name": "tokenId",
          "type": "uint256"
        }
      ],
      "name": "Approval",
      "type": "event"
    },
    {
      "anonymous": false,
      "inputs": [
        {
          "indexed": true,
          "internalType": "address",
          "name": "owner",
          "type": "address"
        },
        {
          "indexed": true,
          "internalType": "address",
          "name": "operator",
          "type": "address"
        },
        {
          "indexed": false,
          "internalType": "bool",
          "name": "approved",
          "type": "bool"
        }
      ],
      "name": "ApprovalForAll",
      "type": "event"
    },
    {
      "anonymous": false,
      "inputs": [
        {
          "indexed": true,
          "internalType": "address",
          "name": "from",
          "type": "address"
        },
        {
          "indexed": true,
          "internalType": "address",
          "name": "to",
          "type": "address"
        },
        {
          "indexed": true,
          "internalType": "uint256",
          "name": "tokenId",
          "type": "uint256"
        }
      ],
      "name": "Transfer",
      "type": "event"
    },
    {
      "inputs": [
        {
          "internalType": "address",
          "name": "to",
          "type": "address"
        },
        {
          "internalType": "uint256",
          "name": "tokenId",
          "type": "uint256"
        }
      ],
      "name": "approve",
      "outputs": [],
      "stateMutability": "nonpayable",
      "type": "function"
    },
    {
      "inputs": [
        {
          "internalType": "address",
          "name": "owner",
          "type": "address"
        }
      ],
      "name": "balanceOf",
      "outputs": [
        {
          "internalType": "uint256",
          "name": "",
          "type": "uint256"
        }
      ],
      "stateMutability": "view",
      "type": "function"
    },
    {
      "inputs": [
        {
          "internalType": "uint256",
          "name": "_tokenId",
          "type": "uint256"
        }
      ],
      "name": "burn",
      "outputs": [],
      "stateMutability": "nonpayable",
      "type": "function"
    },
    {
      "inputs": [
        {
          "internalType": "uint256",
          "name": "tokenId",
          "type": "uint256"
        }
      ],
      "name": "getApproved",
      "outputs": [
        {
          "internalType": "address",
          "name": "",
          "type": "address"
        }
      ],
      "stateMutability": "view",
      "type": "function"
    },
    {
      "inputs": [
        {
          "internalType": "address",
          "name": "owner",
          "type": "address"
        },
        {
          "internalType": "address",
          "name": "operator",
          "type": "address"
        }
      ],
      "name": "isApprovedForAll",
      "outputs": [
        {
          "internalType": "bool",
          "name": "",
          "type": "bool"
        }
      ],
      "stateMutability": "view",
      "type": "function"
    },
    {
      "inputs": [
        {
          "internalType": "string",
          "name": "tokenURI",
          "type": "string"
        }
      ],
      "name": "mintBurnable",
      "outputs": [
        {
          "internalType": "uint256",
          "name": "",
          "type": "uint256"
        }
      ],
      "stateMutability": "payable",
      "type": "function"
    },
    {
      "inputs": [],
      "name": "name",
      "outputs": [
        {
          "internalType": "string",
          "name": "",
          "type": "string"
        }
      ],
      "stateMutability": "view",
      "type": "function"
    },
    {
      "inputs": [
        {
          "internalType": "uint256",
          "name": "tokenId",
          "type": "uint256"
        }
      ],
      "name": "ownerOf",
      "outputs": [
        {
          "internalType": "address",
          "name": "",
          "type": "address"
        }
      ],
      "stateMutability": "view",
      "type": "function"
    },
    {
      "inputs": [
        {
          "internalType": "address",
          "name": "from",
          "type": "address"
        },
        {
          "internalType": "address",
          "name": "to",
          "type": "address"
        },
        {
          "internalType": "uint256",
          "name": "tokenId",
          "type": "uint256"
        }
      ],
      "name": "safeTransferFrom",
      "outputs": [],
      "stateMutability": "nonpayable",
      "type": "function"
    },
    {
      "inputs": [
        {
          "internalType": "address",
          "name": "from",
          "type": "address"
        },
        {
          "internalType": "address",
          "name": "to",
          "type": "address"
        },
        {
          "internalType": "uint256",
          "name": "tokenId",
          "type": "uint256"
        },
        {
          "internalType": "bytes",
          "name": "_data",
          "type": "bytes"
        }
      ],
      "name": "safeTransferFrom",
      "outputs": [],
      "stateMutability": "nonpayable",
      "type": "function"
    },
    {
      "inputs": [
        {
          "internalType": "address",
          "name": "operator",
          "type": "address"
        },
        {
          "internalType": "bool",
          "name": "approved",
          "type": "bool"
        }
      ],
      "name": "setApprovalForAll",
      "outputs": [],
      "stateMutability": "nonpayable",
      "type": "function"
    },
    {
      "inputs": [
        {
          "internalType": "bytes4",
          "name": "interfaceId",
          "type": "bytes4"
        }
      ],
      "name": "supportsInterface",
      "outputs": [
        {
          "internalType": "bool",
          "name": "",
          "type": "bool"
        }
      ],
      "stateMutability": "view",
      "type": "function"
    },
    {
      "inputs": [],
      "name": "symbol",
      "outputs": [
        {
          "internalType": "string",
          "name": "",
          "type": "string"
        }
      ],
      "stateMutability": "view",
      "type": "function"
    },
    {
      "inputs": [
        {
          "internalType": "uint256",
          "name": "tokenId",
          "type": "uint256"
        }
      ],
      "name": "tokenURI",
      "outputs": [
        {
          "internalType": "string",
          "name": "",
          "type": "string"
        }
      ],
      "stateMutability": "view",
      "type": "function"
    },
    {
      "inputs": [
        {
          "internalType": "address",
          "name": "from",
          "type": "address"
        },
        {
          "internalType": "address",
          "name": "to",
          "type": "address"
        },
        {
          "internalType": "uint256",
          "name": "tokenId",
          "type": "uint256"
        }
      ],
      "name": "transferFrom",
      "outputs": [],
      "stateMutability": "nonpayable",
      "type": "function"
    }
  ],
  "bytecode": "0x6080604052670de0b6b3a76400006008553480156200001d57600080fd5b506040518060400160405280600881526020017f4275726e61626c650000000000000000000000000000000000000000000000008152506040518060400160405280600481526020017f4255524e000000000000000000000000000000000000000000000000000000008152508160009080519060200190620000a2929190620000c4565b508060019080519060200190620000bb929190620000c4565b505050620001d9565b828054620000d29062000174565b90600052602060002090601f016020900481019282620000f6576000855562000142565b82601f106200011157805160ff191683800117855562000142565b8280016001018555821562000142579182015b828111156200014157825182559160200191906001019062000124565b5b50905062000151919062000155565b5090565b5b808211156200017057600081600090555060010162000156565b5090565b600060028204905060018216806200018d57607f821691505b60208210811415620001a457620001a3620001aa565b5b50919050565b7f4e487b7100000000000000000000000000000000000000000000000000000000600052602260045260246000fd5b612d0380620001e96000396000f3fe6080604052600436106100e85760003560e01c80635775c4961161008a578063a22cb46511610059578063a22cb4651461030b578063b88d4fde14610334578063c87b56dd1461035d578063e985e9c51461039a576100e8565b80635775c496146102365780636352211e1461026657806370a08231146102a357806395d89b41146102e0576100e8565b8063095ea7b3116100c6578063095ea7b31461019257806323b872dd146101bb57806342842e0e146101e457806342966c681461020d576100e8565b806301ffc9a7146100ed57806306fdde031461012a578063081812fc14610155575b600080fd5b3480156100f957600080fd5b50610114600480360381019061010f9190611d6f565b6103d7565b60405161012191906121b6565b60405180910390f35b34801561013657600080fd5b5061013f6104b9565b60405161014c91906121d1565b60405180910390f35b34801561016157600080fd5b5061017c60048036038101906101779190611e02565b61054b565b604051610189919061214f565b60405180910390f35b34801561019e57600080fd5b506101b960048036038101906101b49190611d33565b6105d0565b005b3480156101c757600080fd5b506101e260048036038101906101dd9190611c2d565b6106e8565b005b3480156101f057600080fd5b5061020b60048036038101906102069190611c2d565b610748565b005b34801561021957600080fd5b50610234600480360381019061022f9190611e02565b610768565b005b610250600480360381019061024b9190611dc1565b610807565b60405161025d91906123f3565b60405180910390f35b34801561027257600080fd5b5061028d60048036038101906102889190611e02565b61084c565b60405161029a919061214f565b60405180910390f35b3480156102af57600080fd5b506102ca60048036038101906102c59190611bc8565b6108fe565b6040516102d791906123f3565b60405180910390f35b3480156102ec57600080fd5b506102f56109b6565b60405161030291906121d1565b60405180910390f35b34801561031757600080fd5b50610332600480360381019061032d9190611cf7565b610a48565b005b34801561034057600080fd5b5061035b60048036038101906103569190611c7c565b610a5e565b005b34801561036957600080fd5b50610384600480360381019061037f9190611e02565b610ac0565b60405161039191906121d1565b60405180910390f35b3480156103a657600080fd5b506103c160048036038101906103bc9190611bf1565b610c12565b6040516103ce91906121b6565b60405180910390f35b60007f80ac58cd000000000000000000000000000000000000000000000000000000007bffffffffffffffffffffffffffffffffffffffffffffffffffffffff1916827bffffffffffffffffffffffffffffffffffffffffffffffffffffffff191614806104a257507f5b5e139f000000000000000000000000000000000000000000000000000000007bffffffffffffffffffffffffffffffffffffffffffffffffffffffff1916827bffffffffffffffffffffffffffffffffffffffffffffffffffffffff1916145b806104b257506104b182610ca6565b5b9050919050565b6060600080546104c890612649565b80601f01602080910402602001604051908101604052809291908181526020018280546104f490612649565b80156105415780601f1061051657610100808354040283529160200191610541565b820191906000526020600020905b81548152906001019060200180831161052457829003601f168201915b5050505050905090565b600061055682610d10565b610595576040517f08c379a000000000000000000000000000000000000000000000000000000000815260040161058c90612373565b60405180910390fd5b6004600083815260200190815260200160002060009054906101000a900473ffffffffffffffffffffffffffffffffffffffff169050919050565b60006105db8261084c565b90508073ffffffffffffffffffffffffffffffffffffffff168373ffffffffffffffffffffffffffffffffffffffff16141561064c576040517f08c379a0000000000000000000000000000000000000000000000000000000008152600401610643906123b3565b60405180910390fd5b8073ffffffffffffffffffffffffffffffffffffffff1661066b610d7c565b73ffffffffffffffffffffffffffffffffffffffff16148061069a575061069981610694610d7c565b610c12565b5b6106d9576040517f08c379a00000000000000000000000000000000000000000000000000000000081526004016106d0906122b3565b60405180910390fd5b6106e38383610d84565b505050565b6106f96106f3610d7c565b82610e3d565b610738576040517f08c379a000000000000000000000000000000000000000000000000000000000815260040161072f906123d3565b60405180910390fd5b610743838383610f1b565b505050565b61076383838360405180602001604052806000815250610a5e565b505050565b3373ffffffffffffffffffffffffffffffffffffffff166107888261084c565b73ffffffffffffffffffffffffffffffffffffffff16146107a857600080fd5b6107b53361dead83610f1b565b60003390508073ffffffffffffffffffffffffffffffffffffffff166108fc6008549081150290604051600060405180830381858888f19350505050158015610802573d6000803e3d6000fd5b505050565b6000600854341461081757600080fd5b6108216007611182565b600061082d6007611198565b905061083933826111a6565b6108438184611380565b80915050919050565b6000806002600084815260200190815260200160002060009054906101000a900473ffffffffffffffffffffffffffffffffffffffff169050600073ffffffffffffffffffffffffffffffffffffffff168173ffffffffffffffffffffffffffffffffffffffff1614156108f5576040517f08c379a00000000000000000000000000000000000000000000000000000000081526004016108ec906122f3565b60405180910390fd5b80915050919050565b60008073ffffffffffffffffffffffffffffffffffffffff168273ffffffffffffffffffffffffffffffffffffffff16141561096f576040517f08c379a0000000000000000000000000000000000000000000000000000000008152600401610966906122d3565b60405180910390fd5b600360008373ffffffffffffffffffffffffffffffffffffffff1673ffffffffffffffffffffffffffffffffffffffff168152602001908152602001600020549050919050565b6060600180546109c590612649565b80601f01602080910402602001604051908101604052809291908181526020018280546109f190612649565b8015610a3e5780601f10610a1357610100808354040283529160200191610a3e565b820191906000526020600020905b815481529060010190602001808311610a2157829003601f168201915b5050505050905090565b610a5a610a53610d7c565b83836113f4565b5050565b610a6f610a69610d7c565b83610e3d565b610aae576040517f08c379a0000000000000000000000000000000000000000000000000000000008152600401610aa5906123d3565b60405180910390fd5b610aba84848484611561565b50505050565b6060610acb82610d10565b610b0a576040517f08c379a0000000000000000000000000000000000000000000000000000000008152600401610b0190612353565b60405180910390fd5b6000600660008481526020019081526020016000208054610b2a90612649565b80601f0160208091040260200160405190810160405280929190818152602001828054610b5690612649565b8015610ba35780601f10610b7857610100808354040283529160200191610ba3565b820191906000526020600020905b815481529060010190602001808311610b8657829003601f168201915b505050505090506000610bb46115bd565b9050600081511415610bca578192505050610c0d565b600082511115610bff578082604051602001610be792919061212b565b60405160208183030381529060405292505050610c0d565b610c08846115d4565b925050505b919050565b6000600560008473ffffffffffffffffffffffffffffffffffffffff1673ffffffffffffffffffffffffffffffffffffffff16815260200190815260200160002060008373ffffffffffffffffffffffffffffffffffffffff1673ffffffffffffffffffffffffffffffffffffffff16815260200190815260200160002060009054906101000a900460ff16905092915050565b60007f01ffc9a7000000000000000000000000000000000000000000000000000000007bffffffffffffffffffffffffffffffffffffffffffffffffffffffff1916827bffffffffffffffffffffffffffffffffffffffffffffffffffffffff1916149050919050565b60008073ffffffffffffffffffffffffffffffffffffffff166002600084815260200190815260200160002060009054906101000a900473ffffffffffffffffffffffffffffffffffffffff1673ffffffffffffffffffffffffffffffffffffffff1614159050919050565b600033905090565b816004600083815260200190815260200160002060006101000a81548173ffffffffffffffffffffffffffffffffffffffff021916908373ffffffffffffffffffffffffffffffffffffffff160217905550808273ffffffffffffffffffffffffffffffffffffffff16610df78361084c565b73ffffffffffffffffffffffffffffffffffffffff167f8c5be1e5ebec7d5bd14f71427d1e84f3dd0314c0f7b2291e5b200ac8c7c3b92560405160405180910390a45050565b6000610e4882610d10565b610e87576040517f08c379a0000000000000000000000000000000000000000000000000000000008152600401610e7e90612293565b60405180910390fd5b6000610e928361084c565b90508073ffffffffffffffffffffffffffffffffffffffff168473ffffffffffffffffffffffffffffffffffffffff161480610f0157508373ffffffffffffffffffffffffffffffffffffffff16610ee98461054b565b73ffffffffffffffffffffffffffffffffffffffff16145b80610f125750610f118185610c12565b5b91505092915050565b8273ffffffffffffffffffffffffffffffffffffffff16610f3b8261084c565b73ffffffffffffffffffffffffffffffffffffffff1614610f91576040517f08c379a0000000000000000000000000000000000000000000000000000000008152600401610f8890612213565b60405180910390fd5b600073ffffffffffffffffffffffffffffffffffffffff168273ffffffffffffffffffffffffffffffffffffffff161415611001576040517f08c379a0000000000000000000000000000000000000000000000000000000008152600401610ff890612253565b60405180910390fd5b61100c83838361167b565b611017600082610d84565b6001600360008573ffffffffffffffffffffffffffffffffffffffff1673ffffffffffffffffffffffffffffffffffffffff1681526020019081526020016000206000828254611067919061255f565b925050819055506001600360008473ffffffffffffffffffffffffffffffffffffffff1673ffffffffffffffffffffffffffffffffffffffff16815260200190815260200160002060008282546110be91906124d8565b92505081905550816002600083815260200190815260200160002060006101000a81548173ffffffffffffffffffffffffffffffffffffffff021916908373ffffffffffffffffffffffffffffffffffffffff160217905550808273ffffffffffffffffffffffffffffffffffffffff168473ffffffffffffffffffffffffffffffffffffffff167fddf252ad1be2c89b69c2b068fc378daa952ba7f163c4a11628f55a4df523b3ef60405160405180910390a461117d838383611680565b505050565b6001816000016000828254019250508190555050565b600081600001549050919050565b600073ffffffffffffffffffffffffffffffffffffffff168273ffffffffffffffffffffffffffffffffffffffff161415611216576040517f08c379a000000000000000000000000000000000000000000000000000000000815260040161120d90612333565b60405180910390fd5b61121f81610d10565b1561125f576040517f08c379a000000000000000000000000000000000000000000000000000000000815260040161125690612233565b60405180910390fd5b61126b6000838361167b565b6001600360008473ffffffffffffffffffffffffffffffffffffffff1673ffffffffffffffffffffffffffffffffffffffff16815260200190815260200160002060008282546112bb91906124d8565b92505081905550816002600083815260200190815260200160002060006101000a81548173ffffffffffffffffffffffffffffffffffffffff021916908373ffffffffffffffffffffffffffffffffffffffff160217905550808273ffffffffffffffffffffffffffffffffffffffff16600073ffffffffffffffffffffffffffffffffffffffff167fddf252ad1be2c89b69c2b068fc378daa952ba7f163c4a11628f55a4df523b3ef60405160405180910390a461137c60008383611680565b5050565b61138982610d10565b6113c8576040517f08c379a00000000000000000000000000000000000000000000000000000000081526004016113bf90612313565b60405180910390fd5b806006600084815260200190815260200160002090805190602001906113ef9291906119ec565b505050565b8173ffffffffffffffffffffffffffffffffffffffff168373ffffffffffffffffffffffffffffffffffffffff161415611463576040517f08c379a000000000000000000000000000000000000000000000000000000000815260040161145a90612273565b60405180910390fd5b80600560008573ffffffffffffffffffffffffffffffffffffffff1673ffffffffffffffffffffffffffffffffffffffff16815260200190815260200160002060008473ffffffffffffffffffffffffffffffffffffffff1673ffffffffffffffffffffffffffffffffffffffff16815260200190815260200160002060006101000a81548160ff0219169083151502179055508173ffffffffffffffffffffffffffffffffffffffff168373ffffffffffffffffffffffffffffffffffffffff167f17307eab39ab6107e8899845ad3d59bd9653f200f220920489ca2b5937696c318360405161155491906121b6565b60405180910390a3505050565b61156c848484610f1b565b61157884848484611685565b6115b7576040517f08c379a00000000000000000000000000000000000000000000000000000000081526004016115ae906121f3565b60405180910390fd5b50505050565b606060405180602001604052806000815250905090565b60606115df82610d10565b61161e576040517f08c379a000000000000000000000000000000000000000000000000000000000815260040161161590612393565b60405180910390fd5b60006116286115bd565b905060008151116116485760405180602001604052806000815250611673565b806116528461181c565b60405160200161166392919061212b565b6040516020818303038152906040525b915050919050565b505050565b505050565b60006116a68473ffffffffffffffffffffffffffffffffffffffff166119c9565b1561180f578373ffffffffffffffffffffffffffffffffffffffff1663150b7a026116cf610d7c565b8786866040518563ffffffff1660e01b81526004016116f1949392919061216a565b602060405180830381600087803b15801561170b57600080fd5b505af192505050801561173c57506040513d601f19601f820116820180604052508101906117399190611d98565b60015b6117bf573d806000811461176c576040519150601f19603f3d011682016040523d82523d6000602084013e611771565b606091505b506000815114156117b7576040517f08c379a00000000000000000000000000000000000000000000000000000000081526004016117ae906121f3565b60405180910390fd5b805181602001fd5b63150b7a0260e01b7bffffffffffffffffffffffffffffffffffffffffffffffffffffffff1916817bffffffffffffffffffffffffffffffffffffffffffffffffffffffff191614915050611814565b600190505b949350505050565b60606000821415611864576040518060400160405280600181526020017f300000000000000000000000000000000000000000000000000000000000000081525090506119c4565b600082905060005b6000821461189657808061187f906126ac565b915050600a8261188f919061252e565b915061186c565b60008167ffffffffffffffff8111156118d8577f4e487b7100000000000000000000000000000000000000000000000000000000600052604160045260246000fd5b6040519080825280601f01601f19166020018201604052801561190a5781602001600182028036833780820191505090505b5090505b600085146119bd57600182611923919061255f565b9150600a8561193291906126f5565b603061193e91906124d8565b60f81b81838151811061197a577f4e487b7100000000000000000000000000000000000000000000000000000000600052603260045260246000fd5b60200101907effffffffffffffffffffffffffffffffffffffffffffffffffffffffffffff1916908160001a905350600a856119b6919061252e565b945061190e565b8093505050505b919050565b6000808273ffffffffffffffffffffffffffffffffffffffff163b119050919050565b8280546119f890612649565b90600052602060002090601f016020900481019282611a1a5760008555611a61565b82601f10611a3357805160ff1916838001178555611a61565b82800160010185558215611a61579182015b82811115611a60578251825591602001919060010190611a45565b5b509050611a6e9190611a72565b5090565b5b80821115611a8b576000816000905550600101611a73565b5090565b6000611aa2611a9d84612433565b61240e565b905082815260208101848484011115611aba57600080fd5b611ac5848285612607565b509392505050565b6000611ae0611adb84612464565b61240e565b905082815260208101848484011115611af857600080fd5b611b03848285612607565b509392505050565b600081359050611b1a81612c71565b92915050565b600081359050611b2f81612c88565b92915050565b600081359050611b4481612c9f565b92915050565b600081519050611b5981612c9f565b92915050565b600082601f830112611b7057600080fd5b8135611b80848260208601611a8f565b91505092915050565b600082601f830112611b9a57600080fd5b8135611baa848260208601611acd565b91505092915050565b600081359050611bc281612cb6565b92915050565b600060208284031215611bda57600080fd5b6000611be884828501611b0b565b91505092915050565b60008060408385031215611c0457600080fd5b6000611c1285828601611b0b565b9250506020611c2385828601611b0b565b9150509250929050565b600080600060608486031215611c4257600080fd5b6000611c5086828701611b0b565b9350506020611c6186828701611b0b565b9250506040611c7286828701611bb3565b9150509250925092565b60008060008060808587031215611c9257600080fd5b6000611ca087828801611b0b565b9450506020611cb187828801611b0b565b9350506040611cc287828801611bb3565b925050606085013567ffffffffffffffff811115611cdf57600080fd5b611ceb87828801611b5f565b91505092959194509250565b60008060408385031215611d0a57600080fd5b6000611d1885828601611b0b565b9250506020611d2985828601611b20565b9150509250929050565b60008060408385031215611d4657600080fd5b6000611d5485828601611b0b565b9250506020611d6585828601611bb3565b9150509250929050565b600060208284031215611d8157600080fd5b6000611d8f84828501611b35565b91505092915050565b600060208284031215611daa57600080fd5b6000611db884828501611b4a565b91505092915050565b600060208284031215611dd357600080fd5b600082013567ffffffffffffffff811115611ded57600080fd5b611df984828501611b89565b91505092915050565b600060208284031215611e1457600080fd5b6000611e2284828501611bb3565b91505092915050565b611e3481612593565b82525050565b611e43816125a5565b82525050565b6000611e5482612495565b611e5e81856124ab565b9350611e6e818560208601612616565b611e77816127e2565b840191505092915050565b6000611e8d826124a0565b611e9781856124bc565b9350611ea7818560208601612616565b611eb0816127e2565b840191505092915050565b6000611ec6826124a0565b611ed081856124cd565b9350611ee0818560208601612616565b80840191505092915050565b6000611ef96032836124bc565b9150611f04826127f3565b604082019050919050565b6000611f1c6025836124bc565b9150611f2782612842565b604082019050919050565b6000611f3f601c836124bc565b9150611f4a82612891565b602082019050919050565b6000611f626024836124bc565b9150611f6d826128ba565b604082019050919050565b6000611f856019836124bc565b9150611f9082612909565b602082019050919050565b6000611fa8602c836124bc565b9150611fb382612932565b604082019050919050565b6000611fcb6038836124bc565b9150611fd682612981565b604082019050919050565b6000611fee602a836124bc565b9150611ff9826129d0565b604082019050919050565b60006120116029836124bc565b915061201c82612a1f565b604082019050919050565b6000612034602e836124bc565b915061203f82612a6e565b604082019050919050565b60006120576020836124bc565b915061206282612abd565b602082019050919050565b600061207a6031836124bc565b915061208582612ae6565b604082019050919050565b600061209d602c836124bc565b91506120a882612b35565b604082019050919050565b60006120c0602f836124bc565b91506120cb82612b84565b604082019050919050565b60006120e36021836124bc565b91506120ee82612bd3565b604082019050919050565b60006121066031836124bc565b915061211182612c22565b604082019050919050565b612125816125fd565b82525050565b60006121378285611ebb565b91506121438284611ebb565b91508190509392505050565b60006020820190506121646000830184611e2b565b92915050565b600060808201905061217f6000830187611e2b565b61218c6020830186611e2b565b612199604083018561211c565b81810360608301526121ab8184611e49565b905095945050505050565b60006020820190506121cb6000830184611e3a565b92915050565b600060208201905081810360008301526121eb8184611e82565b905092915050565b6000602082019050818103600083015261220c81611eec565b9050919050565b6000602082019050818103600083015261222c81611f0f565b9050919050565b6000602082019050818103600083015261224c81611f32565b9050919050565b6000602082019050818103600083015261226c81611f55565b9050919050565b6000602082019050818103600083015261228c81611f78565b9050919050565b600060208201905081810360008301526122ac81611f9b565b9050919050565b600060208201905081810360008301526122cc81611fbe565b9050919050565b600060208201905081810360008301526122ec81611fe1565b9050919050565b6000602082019050818103600083015261230c81612004565b9050919050565b6000602082019050818103600083015261232c81612027565b9050919050565b6000602082019050818103600083015261234c8161204a565b9050919050565b6000602082019050818103600083015261236c8161206d565b9050919050565b6000602082019050818103600083015261238c81612090565b9050919050565b600060208201905081810360008301526123ac816120b3565b9050919050565b600060208201905081810360008301526123cc816120d6565b9050919050565b600060208201905081810360008301526123ec816120f9565b9050919050565b6000602082019050612408600083018461211c565b92915050565b6000612418612429565b9050612424828261267b565b919050565b6000604051905090565b600067ffffffffffffffff82111561244e5761244d6127b3565b5b612457826127e2565b9050602081019050919050565b600067ffffffffffffffff82111561247f5761247e6127b3565b5b612488826127e2565b9050602081019050919050565b600081519050919050565b600081519050919050565b600082825260208201905092915050565b600082825260208201905092915050565b600081905092915050565b60006124e3826125fd565b91506124ee836125fd565b9250827fffffffffffffffffffffffffffffffffffffffffffffffffffffffffffffffff0382111561252357612522612726565b5b828201905092915050565b6000612539826125fd565b9150612544836125fd565b92508261255457612553612755565b5b828204905092915050565b600061256a826125fd565b9150612575836125fd565b92508282101561258857612587612726565b5b828203905092915050565b600061259e826125dd565b9050919050565b60008115159050919050565b60007fffffffff0000000000000000000000000000000000000000000000000000000082169050919050565b600073ffffffffffffffffffffffffffffffffffffffff82169050919050565b6000819050919050565b82818337600083830152505050565b60005b83811015612634578082015181840152602081019050612619565b83811115612643576000848401525b50505050565b6000600282049050600182168061266157607f821691505b6020821081141561267557612674612784565b5b50919050565b612684826127e2565b810181811067ffffffffffffffff821117156126a3576126a26127b3565b5b80604052505050565b60006126b7826125fd565b91507fffffffffffffffffffffffffffffffffffffffffffffffffffffffffffffffff8214156126ea576126e9612726565b5b600182019050919050565b6000612700826125fd565b915061270b836125fd565b92508261271b5761271a612755565b5b828206905092915050565b7f4e487b7100000000000000000000000000000000000000000000000000000000600052601160045260246000fd5b7f4e487b7100000000000000000000000000000000000000000000000000000000600052601260045260246000fd5b7f4e487b7100000000000000000000000000000000000000000000000000000000600052602260045260246000fd5b7f4e487b7100000000000000000000000000000000000000000000000000000000600052604160045260246000fd5b6000601f19601f8301169050919050565b7f4552433732313a207472616e7366657220746f206e6f6e20455243373231526560008201527f63656976657220696d706c656d656e7465720000000000000000000000000000602082015250565b7f4552433732313a207472616e736665722066726f6d20696e636f72726563742060008201527f6f776e6572000000000000000000000000000000000000000000000000000000602082015250565b7f4552433732313a20746f6b656e20616c7265616479206d696e74656400000000600082015250565b7f4552433732313a207472616e7366657220746f20746865207a65726f2061646460008201527f7265737300000000000000000000000000000000000000000000000000000000602082015250565b7f4552433732313a20617070726f766520746f2063616c6c657200000000000000600082015250565b7f4552433732313a206f70657261746f7220717565727920666f72206e6f6e657860008201527f697374656e7420746f6b656e0000000000000000000000000000000000000000602082015250565b7f4552433732313a20617070726f76652063616c6c6572206973206e6f74206f7760008201527f6e6572206e6f7220617070726f76656420666f7220616c6c0000000000000000602082015250565b7f4552433732313a2062616c616e636520717565727920666f7220746865207a6560008201527f726f206164647265737300000000000000000000000000000000000000000000602082015250565b7f4552433732313a206f776e657220717565727920666f72206e6f6e657869737460008201527f656e7420746f6b656e0000000000000000000000000000000000000000000000602082015250565b7f45524337323155524953746f726167653a2055524920736574206f66206e6f6e60008201527f6578697374656e7420746f6b656e000000000000000000000000000000000000602082015250565b7f4552433732313a206d696e7420746f20746865207a65726f2061646472657373600082015250565b7f45524337323155524953746f726167653a2055524920717565727920666f722060008201527f6e6f6e6578697374656e7420746f6b656e000000000000000000000000000000602082015250565b7f4552433732313a20617070726f76656420717565727920666f72206e6f6e657860008201527f697374656e7420746f6b656e0000000000000000000000000000000000000000602082015250565b7f4552433732314d657461646174613a2055524920717565727920666f72206e6f60008201527f6e6578697374656e7420746f6b656e0000000000000000000000000000000000602082015250565b7f4552433732313a20617070726f76616c20746f2063757272656e74206f776e6560008201527f7200000000000000000000000000000000000000000000000000000000000000602082015250565b7f4552433732313a207472616e736665722063616c6c6572206973206e6f74206f60008201527f776e6572206e6f7220617070726f766564000000000000000000000000000000602082015250565b612c7a81612593565b8114612c8557600080fd5b50565b612c91816125a5565b8114612c9c57600080fd5b50565b612ca8816125b1565b8114612cb357600080fd5b50565b612cbf816125fd565b8114612cca57600080fd5b5056fea2646970667358221220ca4d6ce9d4bdbe1ac87910723cb42f442625e1a90d887fd14c0d54077486106064736f6c63430008040033",
  "linkReferences": {},
  "deployedLinkReferences": {}
}